:020000040800F2
:10000000080F01202102000875330008711C000848
:100010007133000897080008113B00080000000039
:100020000000000000000000000000009D0100082A
:100030009B08000800000000D1010008A937000853
:100040003B0200083B0200083B0200083B0200089C
:100050003B0200083B0200083B0200083B0200088C
:100060003B0200083B0200083B0200083B0200087C
:100070003B0200083B0200083B0200083B0200086C
:100080003B0200083B0200083B0200083B0200085C
:100090003B0200083B0200083B0200083B0200084C
:1000A0003B0200083B0200083B0200083B0200083C
:1000B0003B0200083B0200083B0200083B0200082C
:1000C0003B0200083B0200083B0200083B0200081C
:1000D0003B020008253800083B0200083B020008EC
:1000E000411700083B0200083B0200083B020008E1
:1000F0003B0200083B0200083B0200083B020008EC
:100100003B0200083B0200083B0200083B020008DB
:100110003B0200083B0200083B0200083B020008CB
:100120003B0200083B0200083B0200083B020008BB
:100130003B020008E90C00083B0200083B020008F3
:100140003B0200083B0200083B0200083B0200089B
:100150003B0200083B0200083B0200083B0200088B
:100160003B0200083B0200083B0200083B0200087B
:100170003B0200083B0200083B0200083B0200086B
:100180003B0200083B020008DFF80CD000F028FB1F
:100190000048004775880008080F01201A4B1968AD
:1001A0000868B0E8F00F80F309884FF0000080F392
:1001B00011884EF00D0E70470000000003480068E3
:1001C000006880F3088862B600DF00BF08ED00E039
:1001D000EFF309800C4B1A6820E9F00F106008B5A6
:1001E0004FF0500080F3118810F008F94FF0000034
:1001F00080F31188BDE8084019680868B0E8F00F7E
:1002000080F30988704700BF98010020EFF3118048
:100210004FF0500181F31188704780F311887047C7
:100220000648804706480047FEE7FEE7FEE7FEE790
:10023000FEE7FEE7FEE7FEE7FEE7FEE7B137000870
:10024000890100082DE9F05F0546002092469B4693
:1002500088460646814640241BE0284641464746DC
:10026000224600F0AFF853465A46C01A914110D3C7
:1002700011461846224600F016F82D1A67EB0108C1
:100280004F4622460120002100F00DF817EB00092F
:100290004E41201EA4F10104DFDC484631462A46C7
:1002A0004346BDE8F09F202A04DB203A00FA02F121
:1002B000002070479140C2F1200320FA03F3194354
:1002C0009040704710B5431A934209D2831888189A
:1002D00003E010F8011D03F8011D521EF9D210BDF4
:1002E00040EA01039B0703D009E008C9121F08C0B8
:1002F000042AFAD203E011F8013B00F8013B521E38
:10030000F9D210BDD2B201E000F8012B491EFBD298
:1003100070470022F6E710B513460A460446194610
:10032000FFF7F0FF204610BD10B5044604E00B783F
:1003300000F8013B03B1491C521EF8D2204610BD03
:10034000421C10F8011B0029FBD1801A704730B500
:1003500004460020034600E05B1C934203D2E05CAD
:10036000CD5C401BF8D030BD30B5041E71F10004E7
:1003700004DB4FF00044404264EB0101141E73F1B2
:10038000000405DB1C464FF00043524263EB0403BC
:10039000994208BF904230BD30B50B46014600205F
:1003A0002022012409E021FA02F59D4205D303FA37
:1003B00002F5491B04FA02F52844151EA2F10102B8
:1003C000F1DC30BD202A04DB203A21FA02F00021C2
:1003D000704721FA02F3D040C2F120029140084355
:1003E0001946704710B5141E73F1000408DA401C5A
:1003F00041F1000192185B411A4301D120F0010044
:1004000010BD2DE9F04D92469B4611B1B1FA81F233
:1004100002E0B0FA80F220329046FFF744FF044633
:100420000F4640EA0A0041EA0B0153465A46084388
:1004300013D0114653EA010019D0C8F140025046CA
:10044000FFF7C0FF05460E46504659464246FFF7A5
:100450002AFF084305D0012004E020463946BDE8C4
:10046000F08D0020054346EAE0762C4337430A9896
:100470006305E40AA0EB08000022FD0A44EA4754A1
:100480000A3002D500200146E9E70105101969414B
:10049000DDE9084500196941BDE8F04DA2E72DE905
:1004A000FE4F804681EA0300C00F0C46009021F009
:1004B000004123F00045B8EB0200A94105D24046B7
:1004C000214690461C460B46024623F0004010434E
:1004D00047D0270DC7F30A00C3F30A510290401A10
:1004E000019040286BDAC3F3130040F4801B00989E
:1004F000924620B10023D2EB030A63EB0B0B019869
:100500005946C0F140025046FFF7CDFE06460D4663
:1005100050465946019A00F075F910EB0800614108
:10052000002487EA115284EAE7731A4340D0009A04
:1005300062B3019A012A4FEA075215DC001B61EBF6
:1005400002014FF0004202EA0752CDE90042001CCE
:1005500041F5801132462B46FFF753FF03B0BDE84B
:10056000F08F40462146F9E7001B61EB0201001CB9
:1005700041F5801300185B412018A2F5001747EBE6
:10058000030140EAD570B6196D4111E06D084FEADC
:10059000360645EAC0754FEA0752001B61EB0201BF
:1005A000001C41F5801149084FEA30000019514103
:1005B00032462B4603B0BDE8F04FFFF713BF00985B
:1005C000012240000023D0EB020263EBE0730098AD
:1005D00021464FEAE074B8EB000061EB0401E9E763
:1005E00083F000435BE781F0004158E72DE9FE4FBF
:1005F00081EA030404F0004421F0004100944FF02C
:10060000000B23F0004350EA01045ED052EA0304D9
:100610005BD0C3F30A54C1F30A552C44A4F2F3345B
:100620000194A0FB0254C1F3130141F48011C3F300
:10063000130343F4801301FB024400FB034E840ABE
:10064000970A44EA815447EA8357A4FB0768029556
:100650008D0A05FB07854FEA932C04FB0C542705F4
:10066000029D4FEA065847EA1637B5EB08056EEBD0
:10067000070C870E920E47EA811742EA8312A7FB06
:100680000201B6EB0B0164EB00042B0D43EA0C33C3
:100690005E1844EB1C50DA465146E7FB0201C5F3F5
:1006A00013044FEA0B3343EA14534FEA0432019C1C
:1006B00043EA0603A4F10C040294009CCDE900B4C3
:1006C000FFF79FFE03B0BDE8F08F00200146F9E779
:1006D0002DE9F04D81EA030404F0004B21F00045C0
:1006E00014464FF0000A23F0004150EA050220D0E2
:1006F00054EA01021DD0C5F30A570246C5F313039D
:10070000C1F31300C1F30A5640F4801543F480137B
:10071000A7EB0608101BD64608F2FD3873EB050060
:1007200002D308F1010801E092185B41B8F1000F13
:1007300003DA00200146BDE8F08D00204FF480115F
:10074000064684460EE0171B73EB050705D3121B04
:1007500063EB050306434CEA010C49084FEA3000FD
:1007600092185B4150EA0107EDD152EA030012D022
:1007700082EA040083EA0501084305D0101BAB415F
:1007800006D20122002306E000224FF0004302E0DF
:100790006FF0010253101AEB06004CEB085110EBFE
:1007A0000A0041EB0B01BDE8F04DFFF71BBEC1F3A2
:1007B0000A52C1F3130140F2FF3341F480119A420F
:1007C00002DA00200146704740F233439A42A2F217
:1007D000334202DC5242FFF7F5BDFFF764BD000073
:1007E000064C074D06E0E06840F0010394E807007E
:1007F00098471034AC42F6D3FFF7CAFCB83E010864
:10080000D83E0108202A06DBCB17203A41FA02F035
:1008100043EAE07306E041FA02F3D040C2F120025D
:10082000914008431946704770B58C1810F8015B69
:1008300015F0070301D110F8013B2A1106D110F879
:10084000012B03E010F8016B01F8016B5B1EF9D17D
:100850002B0705D40023521E0DD401F8013BFAE703
:1008600010F8013BCB1A921C03E013F8015B01F86E
:10087000015B521EF9D5A142D8D3002070BD10B53E
:10088000022002F0DDFE4FF4FA700FF0FDFB0220B3
:1008900002F0E2FE10BD00BFFEE7704710B504464F
:1008A00020460FF0F1FB10BD1FB500F0EDF800F091
:1008B00081FC00F0DDFB0121002000F0F3FC00F0E2
:1008C000040028B10948006840F01000074908609A
:1008D00000200323CDE90030029003464FF48072DC
:1008E00003A10390044810F03BF81FBD1400002042
:1008F000455F6C696E6B00008DFE00080149486120
:10090000704700000090024029B1064AD2690243B4
:10091000044BDA6104E0034AD2698243014BDA6195
:10092000704700000090024030B10749896941F0EA
:100930000201054A916105E00349896921F002013C
:10094000014A9161704700000090024070B50C466A
:1009500013460021124D286000BF18E000EB411241
:100960004FF00045156044F2F4555560C1EBC115D8
:1009700005EB450504EB850595605D1E8D4204D9A8
:1009800000EB41152035D56000E0D060491C99424C
:10099000E4D3044DE860044D044E356070BD0000A2
:1009A0002801002000900240D48400202C01002067
:1009B00021B1426822F00042426003E0426842F006
:1009C000004242607047000030B10749896941F434
:1009D0000051054A916105E00349896921F40051FC
:1009E000014A9161704700000090024030B50C460A
:1009F000134600210F4D286000BF15E000EB4112A7
:100A00004FF480151560C1EBC11505EB450504EBEE
:100A1000850595605D1E8D4204D900EB411520359A
:100A2000D56000E0D060491C9942E7D3024D2861AF
:100A300030BD0000240100200090024002680A43FB
:100A40000260704710B50121480602F0EBFC00215E
:100A50004FF0007002F0E6FC10BD000008B5002069
:100A600000900848806940F4801006498861084673
:100A7000806900900120FFF711FF0249009888610A
:100A800008BD0000009002401CB5012140F2EF10AB
:100A900002F0B8FC0121880302F0E4FC4FF48070FE
:100AA000009003208DF8050002208DF8040000203E
:100AB0008DF806008DF807006946354801F05EF8AC
:100AC000012002F0E7FD8620009003208DF805004C
:100AD00002208DF8040000208DF806008DF8070034
:100AE00069462B4801F04AF80B220121284801F001
:100AF0008DF80B220221264801F088F80B220721ED
:100B0000234801F083F8322000906946214801F023
:100B100035F80B2201211F4801F078F80B2204213F
:100B20001C4801F073F80B2205211A4801F06EF8F9
:100B30004FF4D04000906946174801F01FF80B228F
:100B40001146154801F062F80B220D21124801F000
:100B50005DF80B220E21104801F058F80820009093
:100B600003208DF8050001208DF8040000208DF889
:100B700006008DF807006946084800F0FFFF00F006
:100B800011FB3220FFF78AFE00F004FB1CBD0000C1
:100B9000000002400008024000180240000C024021
:100BA00001460020034A52690A400AB1012000E0D0
:100BB000002070470090024000200449096801F0BD
:100BC000010109B1012000E00020704700900240BF
:100BD0000FB50021019102910391009170E00099FD
:100BE000491C00913E490968096801F40071A1B1EE
:100BF0003B490968096801F4807171B9384909688D
:100C0000384A126811600121364A126891603449ED
:100C10000968C968324A116052E0314909680968B7
:100C200001F4807191B92E490968096801F40071D5
:100C300061B92C4909688968491C2A4A126891607F
:100C400027490968C968264A116039E024490968BA
:100C5000244A12685160234909688968491C214A5D
:100C6000126891601F4909688968012904D11C49EB
:100C700009681C4A12681160194909680968C1F3BA
:100C80000D41091F0191174909688968012905D992
:100C90001449096809688968029103E010490968E4
:100CA000896802910F490968096803910C4909682C
:100CB000C9680B4A116001A90EC980E80E000FBD7A
:100CC00007490968096801F0004111B90099042930
:100CD00085D301A90EC980E80E0000BFEFE7000030
:100CE000280100202C01002008B5002000904020A1
:100CF000FFF756FF012806D100236A461946094826
:100D000000680FF0B4FD4020FFF7F8FD4FF480308D
:100D1000FFF7F4FD009818B1009808B10FF084F9BE
:100D200008BD0000000100202DE9F04188B0044614
:100D30000F464FF00008002500200790B54E0290A6
:100D400001200190B448056925F01C0503A802F0B4
:100D500099FB049EB148864205D3B148864202D22F
:100D600045F008051AE0AE48864205D3A9488642F8
:100D700002D245F00C0511E0A648864203D3A948EB
:100D8000864200D20AE0A748864205D3A64886429A
:100D900002D245F0040501E045F010059E480561CA
:100DA0004FF400420021384600F036FB10B9002015
:100DB00001906AE03220FFF771FD2068002850D0D2
:100DC00000BF0298401C02900121384600F06AFAE8
:100DD00000F0040018B9954902988842F1D393496C
:100DE0000298884202D1002001904EE0002002903B
:100DF0004FF480520021384600F00EFB08B9002065
:100E0000019000BF0298401C02900121384600F07A
:100E100049FA00F0200018B9844902988842F1D3B9
:100E200082490298884202D1002001902DE00020E2
:100E300002901F21384600F035FA804608F0100075
:100E400018B14FF40060206201E00020206208F039
:100E5000040010B10020606116E04FF48040606132
:100E600012E0206AC0F3CF006169C1F34F0140EA8C
:100E700001020021384600F0CFFA08B900200190A5
:100E800040F6FF70FFF70AFD00BF019820B94FF44C
:100E900000602062C00060615F48056864480540EA
:100EA000D4E901010843E168084321690843616905
:100EB0000843A1690843E1690843216A0843616A5C
:100EC0000843A16A0843E16A0843216B0843616B48
:100ED000084305435048056005680120FFF7DEFC24
:100EE0004D480560D4E90E010843216C0843616C4C
:100EF0000843A16C0843E16C0843216D0843616D10
:100F0000084345494860084645680120FFF7C6FC8C
:100F1000414845604049A06D8860E06DC860084662
:100F200085694FF641700540B4F86010606E40EA84
:100F30000140A16E0843E16E0843216F0843616FD1
:100F4000084305433448856185690120FFF7A6FC05
:100F500031488561D4E91E0108432F49C86108461C
:100F6000C5690120FFF79AFC2B48C56131488569A6
:100F700031480540D4E920010843D4F888100843DB
:100F8000D4F88C100843D4F890100843D4F8941087
:100F90000843D4F898100843D4F89C100843D4F8B8
:100FA000A010084305432348856185690120FFF7A8
:100FB00075FC20488561D4E929010843D4F8AC10B8
:100FC0000843D4F8B0100843D4F8B41040EA8100C4
:100FD000D4F8B810084340F40000164908600846E9
:100FE00005680120FFF75AFC12480560006840F0D0
:100FF000800010490860084605680120FFF74EFC94
:101000000C4805600198012802D108B0BDE8F081C4
:101010000020FAE70087930300800240002D310191
:10102000C00E160200E1F50580D1F008FFFF0400B4
:101030000F8120FF00900240233FDEF810B50B79AE
:101040004C7943EA0422094B03441A64CB781B060B
:101050008C7843EA04434C7843EA04230C7843EA4F
:101060000402024B03445A6410BD00000080024099
:1010700010B501214FF0606002F0C4F9FFF7E2FC07
:1010800000F046F900BFFFF797FD0128FBD020488C
:1010900000F068F901201E4908600020C8614FF483
:1010A000007088620020C86288634864C86408656C
:1010B00048654FF4806048620020C1F880004FF01E
:1010C0000070C1F884000011C1F88C000020C1F844
:1010D0009400C1F898000420C1F8A000C005C1F830
:1010E000A4004012C1F8A8008001C1F8AC00401271
:1010F000C1F8B0004000C1F8B80000210448FFF773
:1011000013FE0449086001210348FFF7FDFB10BDF1
:1011100020020020140000204000010038B50446E1
:101120000020009034B10B48006840F004000949E9
:10113000086005E00748006820F0040005490860E1
:101140000448006800900120FFF7A8FB01490098BF
:10115000086038BD0080024038B504460020009089
:1011600034B10B48006840F008000949086005E008
:101170000748006820F00800054908600448006836
:1011800000900120FFF78AFB01490098086038BDF4
:101190000080024010B50821014800F05CFD10BD40
:1011A000000C024010B50821014800F052FD10BDAE
:1011B000000C024008B53D208DF800000C208DF891
:1011C000010000208DF8020001208DF80300684620
:1011D00002F0D2F808BD000070B5024600230025D9
:1011E00000242E480068006800F0004008B100208C
:1011F00070BD2A48016840F2F450824208DD92FB3B
:10120000F0F392FBF0F600FB162010B15B1C00E03F
:101210000123012B0CD1086840F040500860C2F354
:101220000C004860086840F000400860C96826E08B
:10123000002422E0086820F0405008601CB90868CB
:1012400040F08050086040F2F4504860581EA042C0
:101250000DD1086840F000500860581EC0EBC01067
:1012600000EB4000A2EB8005C5F30C004860086865
:1012700040F000400860C968641C9C42DAD307480B
:1012800001600748406900F0040020B10420044ECA
:101290007061002070600120AAE700002401002096
:1012A0000090024018B502460B4600210020009035
:1012B0001548016901F01C014FF4784000EAC22092
:1012C00001434FF4F86000EA8310014321F002016A
:1012D00041F001010C48016100BF0098401C0090E2
:1012E0000948016901F0010018B1084C0098A042BA
:1012F000F3D3064C0098A04201D1002018BD02484B
:10130000406980B2FAE7000000800240FFFF04005D
:101310000348006840F00100014908607047000080
:101320000090024010B50120FFF716FF0120FFF7E3
:10133000F5FEFFF793FB0120FFF746FB0120FFF7C7
:10134000F3FA10BD10B50020FFF73EFB0020FFF7B9
:10135000EBFA0020FFF7E2FEFFF780FB0020FFF72B
:10136000FBFE10BD01210160002141608160C16070
:1013700001614FF48041416100218161C1614FF4FD
:1013800000610162002141628162C16201634163C7
:101390008163C16340210164202141640021816493
:1013A000C164016541658165C16501668021416651
:1013B00000218166C166016741678167C1674FF09F
:1013C0008061C0F880104910C0F884100021C0F876
:1013D00088104FF40011C0F88C100021C0F8901054
:1013E000C0F89410C0F89810C0F89C10C0F8A01075
:1013F0004FF00071C0F8A4104912C0F8A81089017C
:10140000C0F8AC104912C0F8B0100021C0F8B410F8
:10141000C0F8B8107047000038B503460C460021EC
:10142000002000901448016901F01C014FF478403D
:1014300000EAC32001434FF4F86000EA841001433E
:1014400041F0020141F001010B484261016100BF1E
:101450000098401C00900848016901F0010018B193
:10146000064D0098A842F3D3044D0098A84201D13C
:10147000002038BD0120FCE700800240FFFF04008F
:10148000F0B58DB0064600200C90089000F07EFD6F
:10149000C0888004070C384600F000FC00F076FDA0
:1014A000C08800EB800087B2384600F0F7FB00F000
:1014B0006DFDC08800EB40004004070C384600F08A
:1014C000EDFB00F063FDC088C0EBC00087B238467A
:1014D00000F0E4FB00F05AFDC088C004070C384659
:1014E00000F0DCFB00F052FDC08800EBC00087B2CA
:1014F000384600F0D3FB96F83100C0F30010002806
:101500007DD06E480068002842D000200C904FF437
:10151000805200210846FFF77FFF00BF0C98401C57
:101520000C9001210020FFF7BDFE00F0200018B94B
:1015300063490C988842F1D300200C901F21FFF7DB
:10154000B1FE044604F0100020B14FF400605B4986
:10155000086202E000205949086204F0040018B152
:1015600000205649486103E04FF4804053494861E8
:1015700054480568514840695049096A0843054381
:10158000504805600120FFF789F94E48056805605D
:10159000FFF7C8FE4C480B906FF07F400A904B4815
:1015A000099009AB0AAA0BA9494808F03EFA484835
:1015B00008F000FB4FF4FC6000F08AFF00F0E6FC4E
:1015C000C08800EB800087B242A1384600F030FCB2
:1015D00000F0DCFCC08800EB40004004070C43A195
:1015E000384600F025FC4FF6FF7000F071FF4220F6
:1015F0008DF8200001208DF82100A82000E039E0BE
:101600008DF82200C0208DF823009DF820009DF861
:101610002110CDE900109DF822309DF8232039A13A
:1016200003A802F043FB00F0B1FCC088C004070C23
:1016300038A1384600F0FCFB00F0A8FCC08800EBA5
:10164000C00087B203A9384600F0F2FB00F09EFC10
:10165000C08800EB800087B2384600F01FFB00F026
:1016600095FCC08800EB40004004070C384600F0B1
:1016700015FB21E0FFF766FE154808F0F3F94FF47B
:10168000784000F025FF00F081FCC08800EB80006E
:1016900087B210A1384600F0CBFB00F077FCC08881
:1016A00000EB40004004070C20A1384600F0C0FBCE
:1016B0004FF6FF7000F00CFF0DB0F0BD20020020CF
:1016C000FFFF040000800240C0A80142C0A8010141
:1016D000E801002020204E6574776F726B20436113
:1016E000626C65206973202000000000202020200B
:1016F0006E6F7720636F6E6E656374656420202063
:1017000000000000202025642E25642E25642E254F
:1017100064000000202053746174696320495020E4
:1017200061646472657373202020000020202020F3
:1017300020756E706C75676765642020200000005E
:1017400010B500244FF4804000F010F84FF48040B2
:1017500000F006F814B10CB10EF066FC10BD0000EC
:101760000149086070470000143C01400146002018
:101770000022074B1B6803EA0102054B14331B6868
:101780000B4013B10AB1012000E0002070470000B7
:10179000003C014051B18200A2F1C042126842F007
:1017A00001038200A2F1C042136009E08200A2F1AD
:1017B000C0421268034B1A408300A3F1C0431A6071
:1017C00070470000FEFF0F00D0E901121143C2680C
:1017D0001143026911434269114382691143C2698D
:1017E0001143026A1143426A1143826A1143C26A79
:1017F0001143026B114302689200A2F1C0421160D2
:10180000816808290BD101688900A1F1C0410968EC
:1018100041F0400201688900A1F1C0410A60416BBA
:101820000968426B526841EA0211426B926841EAD0
:101830000221426B928941EA0241426B128A41EADB
:101840000251426B127D41EA0261426B926911437F
:101850000268521C9200A2F1C0421160C16AB1F547
:10186000804F1BD1816B0968826B526841EA02117B
:10187000826B926841EA0221826B128A41EA02512C
:10188000826B127D41EA0261826B926911430268A8
:101890009200A2F1C042C2F8041107E06FF070425A
:1018A00001688900A1F1C041C1F80421704700001E
:1018B00000B599B001217A2001F0A4FD012108466C
:1018C00001F0C0FD4FF40040179001208DF860003A
:1018D00000208DF8620002208DF8610001208DF853
:1018E000630017A9A04800F049F94FF6337017902C
:1018F00002208DF8600000208DF8620003208DF832
:10190000610001208DF8630017A9984800F036F9AE
:101910004FF68370179002208DF8600000208DF83C
:10192000620003208DF8610001208DF8630017A983
:101930008F4800F023F94FF23F00179002208DF8F6
:10194000600000208DF8620003208DF86100012006
:101950008DF8630017A9874800F010F940F23F4066
:10196000179002208DF8600000208DF8620003209F
:101970008DF8610001208DF8630017A97E4800F002
:10198000FDF80C220021794800F040F90C220121D9
:10199000764800F03BF90C220421744800F036F937
:1019A0000C220521714800F031F90C2208216F4802
:1019B00000F02CF90C2209216C4800F027F90C22C8
:1019C0000A216A4800F022F90C220B21674800F036
:1019D0001DF90C221146654800F018F90C220D2162
:1019E000624800F013F90C220E21604800F00EF955
:1019F0000C220F215D4800F009F90C2200215C48FF
:101A000000F004F90C220121594800F0FFF80C22E3
:101A10000721574800F0FAF80C220821544800F03A
:101A2000F5F80C220921524800F0F0F80C220A21A6
:101A30004F4800F0EBF80C220B214D4800F0E6F87F
:101A40000C2211464A4800F0E1F80C220D214848CA
:101A500000F0DCF80C220E21454800F0D7F80C22EB
:101A60000F21434800F0D2F80C220021414800F039
:101A7000CDF80C2201213F4800F0C8F80C220221C9
:101A80003C4800F0C3F80C2203213A4800F0BEF8AD
:101A90000C220421374800F0B9F80C220521354802
:101AA00000F0B4F80C221146324800F0AFF80C22D6
:101AB0000D21304800F0AAF80C220E212D4800F02C
:101AC000A5F80C220F212B4800F0A0F80C220021D1
:101AD000294800F09BF80C220121274800F096F8D5
:101AE0000C220221244800F091F80C220321224804
:101AF00000F08CF80C2204211F4800F087F80C221B
:101B000005211D4800F082F80C220A211A4800F035
:101B10007DF800200190029008200390002004909E
:101B200005900690079004200890002009900A90E4
:101B300010200B9000200C900E900D900F901090A4
:101B40004FF480501190002012901390149001A82F
:101B50001590169008A8FFF737FE01210420FFF723
:101B600019FE19B000BD000000040240000C024044
:101B7000001002400014024000180240F0B50A466E
:101B800000210023002400BF3DE0012505FA01F3F8
:101B9000156805EA03049C4234D105684F0003260A
:101BA000BE40B543056015794E00B5400668354323
:101BB00005601579012D02D01579022D16D18568A1
:101BC0004F000326BE40B543856055794E00B540B1
:101BD000866835438560456801268E40B54345607B
:101BE000456896798E40B6B235434560C5684F006A
:101BF0000326BE40B543C560D5794E00B540C668E2
:101C00003543C560491C1029BFD3F0BDF0B5002392
:101C100000244D07ED0E02FA05F3CE1000F1200569
:101C200055F826504E07F70E0F26BE40B543CF108D
:101C300000F1200646F82750CE1000F1200555F897
:101C4000265045EA0304CE1000F1200545F8264051
:101C5000F0BD41837047018370470000034800884E
:101C600002490988491C014A118070472000002060
:101C700000BFFEE730B50446002540F23F110020CA
:101C800000F014FC00F030FC00BF03E04FF0D04047
:101C900044806D1CB5F5963FF8D330BD30B5054690
:101CA00040F23F1409E020222146284600F0A8F81F
:101CB000064800688088201A84B2601C80B20349FC
:101CC000096889888842EEDA30BD00008001002072
:101CD0001CB50121782001F095FB4CF23370009087
:101CE00002208DF804008DF8050000208DF8060014
:101CF0008DF8070069463E48FFF740FF0C2200219F
:101D00003B48FFF783FF0C2201213948FFF77EFF94
:101D10000C2204213648FFF779FF0C2205213448B4
:101D2000FFF774FF0C2208213148FFF76FFF0C22E8
:101D300009212F48FFF76AFF0C220A212C48FFF7E0
:101D400065FF0C220E212A48FFF760FF0C220F21AD
:101D50002748FFF75BFF4FF68070009069462548E3
:101D6000FFF70CFF0C2207212248FFF74FFF0C2240
:101D700008212048FFF74AFF0C2209211D48FFF7E0
:101D800045FF0C220A211B48FFF740FF0C220B21C4
:101D90001848FFF73BFF0C2211461648FFF736FFA5
:101DA0000C220D211348FFF731FF0C220E211148A0
:101DB000FFF72CFF0C220F210E48FFF727FF012011
:101DC000009069460C48FFF7D9FE0C2200210A4812
:101DD000FFF71CFF4FF48060009069460748FFF74B
:101DE000CDFE0C220A210548FFF710FF1CBD0000A4
:101DF000000C024000100240001402400018024093
:101E000070B505460E461446A4F12000C4B207483A
:101E10000068016805480068C088604301EB400223
:101E20003146284600F02AF870BD000080010020ED
:101E300070B506460C4640F23F150AE02278294666
:101E40003046FFF7DDFF0C4800688088281A85B20D
:101E5000641C681C80B2084909688988884201DBD3
:101E6000012000E00020217809B1012100E00021DB
:101E700008400028E2D170BD800100202DE9F04328
:101E800007468946164600240025A046B84649461E
:101E9000404600F00BFB00BF39E000F025FB0025B9
:101EA00027E01E48006880880C2190FBF1F0C100FB
:101EB00080208840284136F81410084020B917487F
:101EC000006880880C280ADD36F814000121A9403A
:101ED000084048B91148006880880C2804DD104883
:101EE000008800F0FDFA03E00E48008800F0F8FAE0
:101EF0006D1C0A4800688088A842D2D808F1010009
:101F00001FFA80F84946404600F0D0FA641C0348A6
:101F10000068C088A042C0D8BDE8F08380010020DE
:101F2000860100208401002000B597B001210846F9
:101F300001F088FA0520019000200290092003900A
:101F4000002004900590069007900420089000203F
:101F500009900A9010200B9000200C900D900E908C
:101F60000F9010904FF48050119000201290139019
:101F7000149001A81590169008A8FFF725FC0121E0
:101F80000420FFF707FC17B000BD000001480068FF
:101F9000704700008001002008B500200090FFF786
:101FA00097FEFFF7C1FF052002F06EFB002000F056
:101FB0006FFA009049F22031009888427ED14FF4A8
:101FC0000041E52000F095FA0121002000F091FA8F
:101FD0004FF48071012000F08CFA4FF4E061022090
:101FE00000F087FA41F23001032000F082FA00216C
:101FF000042000F07EFA40F20221082000F079FA75
:102000000021092000F075FA00210A2000F071FA81
:1020100000210C2000F06DFA00210D2000F069FA7B
:1020200000210F2000F065FA0021102000F061FA75
:102030000021112000F05DFA0021122000F059FA71
:102040000021132000F055FA142002F01DFB41F28C
:10205000B071102000F04DFA40F23711112000F05D
:1020600048FA052002F010FB40F23911122000F06E
:1020700040FA052002F008FB4FF4E851132000F06D
:1020800038FA1321292000F034FA052002F0FCFA76
:102090000021202000F02DFA0021212000F029FA53
:1020A0000721302000F025FA0721312000F021FA25
:1020B0000721322000F01DFA072100E079E03520E9
:1020C00000F017FA0721362000F013FA4FF4E06110
:1020D000372000F00EFA4FF4E061382000F009FAE2
:1020E0004FF4E061392000F004FA4FF4E0613C2045
:1020F00000F0FFF94FF4F8513D2000F0FAF900210B
:10210000502000F0F6F9EF21512000F0F2F9002103
:10211000522000F0EEF940F23F11532000F0E9F9AF
:102120004FF41C51602000F0E4F90121612000F01F
:10213000E0F900216A2000F0DCF90021802000F0A5
:10214000D8F90021812000F0D4F90021822000F08C
:10215000D0F90021832000F0CCF90021842000F088
:10216000C8F90021852000F0C4F91021902000F06A
:10217000C0F90021922000F0BCF90321932000F067
:10218000B8F94FF48871952000F0B3F90021972039
:1021900000F0AFF90021982000F0ABF941F21801EE
:1021A000032000F0A6F940F27311072000F0A1F916
:1021B000F9E049F2253100988842F9D10121002047
:1021C00000F097F94FF48071012000F092F94FF47C
:1021D000E061022000F08DF941F21801032000F0C7
:1021E00088F90021042000F084F940F2022108203F
:1021F00000F07FF90021092000F07BF900210A207E
:1022000000F077F900210C2000F073F900210D2077
:1022100000F06FF900210F2000F06BF90021102071
:1022200000F067F90021112000F063F9002112206D
:1022300000F05FF90021132000F05BF9142002F098
:1022400023FA41F2B071102000F053F940F2371137
:10225000112000F04EF9052002F016FA40F2391173
:10226000122000F046F9052002F00EFA4FF4E85172
:10227000132000F03EF91321292000F03AF905203F
:1022800002F002FA0021202000F033F90021212081
:1022900000F02FF90721302000F02BF940F2023135
:1022A000312000F026F940F20511322000F021F92A
:1022B00040F20621352000F01CF940F608013620D6
:1022C00000F017F940F20621372000F012F940F231
:1022D0000451382000F00DF90721392000F009F9E8
:1022E00040F205113C2000F004F940F608013D20C1
:1022F00000F0FFF80021502000F0FBF8EF21512002
:1023000000F0F7F80021522000F0F3F840F23F11FE
:10231000532000F0EEF84FF42741602000F0E9F878
:102320000121612000F0E5F800216A2000F0E1F8C9
:102330000021802000F0DDF80021812000F0D9F894
:102340000021822000F0D5F80021832000F0D1F890
:102350000021842000F0CDF80021852000F0C9F88C
:102360001021902000F0C5F80021922000F0C1F863
:102370000321932000F0BDF84FF48871952000F000
:10238000B8F80021972000F0B4F80021982000F060
:10239000B0F841F21801032000F0ABF840F233111D
:1023A000072000F0A6F8024800F08CF808BD0000F5
:1023B0006001002010B5FFF7EFFD002001F01AF9D1
:1023C000012001F017F9012001F03AF9022001F093
:1023D00011F9022001F040F90020FFF74BFC00202A
:1023E00000F05CF84FF6FF7000F072F8FFF7CEFDDA
:1023F00000240FA12046FFF71BFDFFF7C7FDC4888F
:1024000011A12046FFF714FDFFF7C0FDC08840046E
:10241000040C13A12046FFF70BFDFFF7B7FDC088A2
:1024200000EB400084B214A12046FFF701FD10BD6F
:102430002020202053544D33324634302F3431780D
:102440002020202020000000202053544D3332460D
:102450002D34205365726965732020200000000030
:1024600042617369632057656253657276657220B5
:1024700044656D6F000000002020202020202020D7
:1024800020202020202020202020202000000000CC
:1024900001464FF0D04001804088704701B5BDF83B
:1024A00000000149088008BD8601002010B50346E0
:1024B0000C461946202000F01CF82146212000F08F
:1024C00018F810BD01490860704700008001002025
:1024D00001B5BDF800000149088008BD8401002055
:1024E0004FF0D0414880704722204FF0D041088003
:1024F00070474FF0D04210805180704710B58CB0BB
:1025000000200890002108460DF0CAF83DA001F017
:10251000BDFB43480B906FF07F400A904148099003
:1025200041484249002209ABCDE9002102900AAAA4
:102530000BA93F4807F032FA3D4807F08BFA3D48B7
:102540000068112838D13A4890F8310040F0100066
:10255000374981F83100084607F02CFB42208DF8FE
:10256000200001208DF82100A8208DF82200C02035
:102570008DF823009DF820009DF82110CDE9001072
:102580009DF822309DF823202BA103A801F08EFB9B
:10259000FFF7FCFCC088C004040C2BA12046FFF709
:1025A00047FCFFF7F3FCC08800EBC00084B203A92E
:1025B0002046FFF73DFC1FE01D4807F053FA4FF49B
:1025C0007840FFF785FFFFF7E1FCC08800EB800053
:1025D00084B223A12046FFF72BFCFFF7D7FCC0886D
:1025E00000EB40004004040C23A12046FFF720FC30
:1025F0004FF6FF70FFF76CFF25490D4807F092FA80
:102600000CB010BD55736520537461746963204923
:10261000502041646472657373210D0A000000004C
:10262000C0A80142C0A80101EDF60008C16300087E
:10263000E801002014000020202025642E25642EAF
:1026400025642E25640000002020537461746963A2
:10265000204950206164647265737320202000005B
:1026600020204E6574776F726B204361626C652029
:102670006973202000000000202020206E6F74204D
:10268000636F6E6E65637465642020200000000037
:102690008114000870B5B6B0044658223B4920A802
:1026A000FDF710FE642502200290002003900490A4
:1026B000E11704EB5171C91004AA515C04F007033F
:1026C00001229A4011432046E21704EB5272D210C5
:1026D00004AB995400208DF89B0004208DF88800ED
:1026E0002BA023903220ADF898002CA030902BA086
:1026F000339001208DF89A0020AA294607A800F0FF
:10270000B5FA0646314607A80DF000F9002803DAAD
:102710004FF0FF3036B070BD02A800231A4604A95E
:102720000090601C05F02CFA10B96FF00100F1E781
:10273000E11704EB5171C91004AA515C04F00703BE
:1027400001229A40114011B96FF00200E2E7154AE8
:10275000294607A800F01EFA022802D06FF00300F5
:10276000D8E72B4607AA05A906A800F053F80128C8
:1027700002D19DF8140010B16FF00400CAE79DF873
:102780001800012800D1C5E70020C3E7540C010858
:102790004D494D49544F544F000000006368697320
:1027A0006A00000069F800082DE9FE4F04460D4656
:1027B00016461F46DDF830A00020029001978046A3
:1027C000814601A808F07DF88DF808000298C0F352
:1027D000C00028700298C0F3031020706946019869
:1027E00000F09AF98146019908440190DDE9001052
:1027F00000EB01080198A8EB0000022800DA06E0CF
:1028000001A808F065F830804FF0010900BF484684
:10281000BDE8FE8F2DE9FF4704460D461646994652
:1028200000200390029600278046009002A808F03E
:1028300048F88DF80C000398C0F30310022800D06C
:102840001FE001A9029800F067F980460299084448
:102850000290DDE9011047180298381A022800DAC0
:102860000FE002A808F02DF88DF80000009800F0A5
:102870000100207002A808F024F828704FF0010829
:1028800000BF404604B0BDE8F0872DE9FF5F064673
:102890000C4617469846DDE90FABDDF8389000206E
:1028A000039011980290002500200190009002A84A
:1028B00008F007F88DF80C000398C0F30310032804
:1028C00000D032E00398C0F3C00030700398C0F32A
:1028D00041002060039800F00100387069460298BA
:1028E00000F01AF9019002990844029000990298A8
:1028F00045182A4602A9484607F0F7FF10B102988A
:10290000281A00D511E02068002804DD02A807F08D
:10291000DFFFA8F800000298281ACBF80000029800
:10292000CAF800000120019000BF019804B0BDE882
:10293000F09F2DE9FE4F05460E4614461F46DDE981
:102940000C9B00200290CDF804908046824601A89E
:1029500007F0B7FF8DF808000298C0F303100928AC
:1029600000D02CE06946019800F0D6F88246019923
:1029700008440190DDE9001000EB01080198A8EB84
:102980000000022800DA1AE001A807F0A1FF288061
:10299000002020600DE02068B04202DD4FF0FF3AD9
:1029A0000DE001A807F08DFF2268511C216047F857
:1029B000220001984045EED34FF0010A00BF504677
:1029C000BDE8FE8F2DE9F04FD7B080460E46144685
:1029D0001F46DDF884A1DDF880914FF496700B90CE
:1029E0000020089009900A9083460896012C01D097
:1029F000022C03D1FFF732F9834602E000240027BE
:102A0000A346CDE9059A08A807C802AB07C3F8B2E8
:102A100023460022CDE9000B0CA80B9900F036FAF2
:102A20000546002D04DC4FF0FF3057B0BDE8F08FB5
:102A300029460CA80CF06AFF002802DA6FF00100AA
:102A4000F3E70CB90020F0E7012C0AD1052204219C
:102A5000404601F0F3F8002801DA201FE5E70120E5
:102A6000E3E7022C28D105221146404601F0E6F8A2
:102A7000002801DA601FD8E700220CA8079B0B99F9
:102A800000F06DFA054615B96FF00300CDE7294651
:102A90000CA80CF03BFF002802DA6FF00500C4E739
:102AA00005221146404601F0C9F8002802DA6FF00D
:102AB0000600BAE70220B8E76FF00700B5E72DE996
:102AC000F84305460C46012600270020206000BF81
:102AD0004FF0FF38781C0746042801DD00BF17E0DF
:102AE00001216846A8478046B8F1010F00D00FE0E9
:102AF0009DF8001001F07F01206801FB06002060B6
:102B0000F6019DF8000000F080000028E0D100BF31
:102B10003846BDE8F883000070B504460D4603480A
:102B2000046029460248FFF7CAFF70BDDC0100209F
:102B30006146000830B50246002300BF0846CD17A5
:102B400001EB5565ED11A1EBC515ECB2CD1701EB0D
:102B50005565E911002901DD44F0800418465B1C2D
:102B600014540029EADC184630BD0000401C8028BF
:102B700001DA401C0AE0B0F5804F01DA801C05E064
:102B80000349884201DAC01C00E0001D70470000C4
:102B9000FFFF1F002DE9FC4104460F4615464FF08C
:102BA000FF38002001900026009001212046A84710
:102BB000012800D01EE0012669462846FFF77FFF66
:102BC000601C0099FFF7B6FF064400983044B842F5
:102BD00000DD0FE0009830B1A0190099A8470099D6
:102BE000884200D006E020788DF804000198C0F3F8
:102BF000031800BF4046BDE8FC812DE9FC470446B0
:102C00000E4615461F46DDF82880002001908146BB
:102C10000094042E02DA6FF0010924E0019865F3B4
:102C200007100190019867F3C3000190062D01D1B0
:102C3000012100E00021019861F3420001909DF81C
:102C4000041068460DF02EFC02210098FFF772FF79
:102C5000009908440090414668460DF029FC009810
:102C6000A0EB040900BF4846BDE8FC872DE9FE4300
:102C700005460E461446029500200190009000275C
:102C80004FF0FF38204600F0A5F807468146FFF7D1
:102C90006DFFB04202DD6FF001088FE000208DF87B
:102CA0000400019820F0F000103001909DF804100D
:102CB00002A80DF0F7FB39460298FFF73BFF029997
:102CC00008440290207A042808D13EA102A80DF001
:102CD000D5FB042102A80DF0E5FB07E03BA102A80B
:102CE0000DF0CCFB032102A80DF0DCFB00208DF8D9
:102CF0000000A17E009861F341000090E07E08B1E1
:102D0000012100E00021009861F38200009000980A
:102D1000C0F3800058B194F83D10009861F3C400EE
:102D2000009094F83C10009861F345100090206CDE
:102D300008B9A06C20B1009820F08000803000908D
:102D4000E06C08B9606D20B1009820F04000403080
:102D500000909DF8001002A80DF0A4FB218B02A8A2
:102D60000DF0A6FB02A8D4E90423E1680DF0B8FB3E
:102D7000E07E58B102A8D4E90A23616A0DF0B0FBE5
:102D800002A8D4E90D23216B0DF0AAFB0098C0F333
:102D9000C01028B102A8D4E91123216C0DF0A0FBCA
:102DA0000098C0F3801028B102A8D4E91423E16C84
:102DB0000DF096FB0298A0EB050800BF4046BDE869
:102DC000FE8300004D515454000000004D514973E2
:102DD0006470000070B504460025207A032801D1F4
:102DE0000C2503E0207A042800D10A25D4E9041236
:102DF000E06800F0E1F9801C0544E07E68B1D4E9A8
:102E00000A12606A00F0D8F9861CD4E90D12206B12
:102E100000F0D2F93044801C0544206C08B9A06C45
:102E200030B1D4E91112206C00F0C6F9801C0544C1
:102E3000E06C08B9606D30B1D4E91412E06C00F0B8
:102E4000BBF9801C0544284670BD70B504460D468C
:102E50000C222946204600F0FEF870BDF8B5054664
:102E60000E46144600230422314628460094FFF7FC
:102E7000C4FEF8BDF8B505460E46144600230722E9
:102E8000314628460094FFF7B8FEF8BD2DE9F04F13
:102E900087B005460F4690461C46DDE915B6DDE9CC
:102EA000109A069500200590049003900096204605
:102EB00012A90EC900F042F804900290FFF756FEE6
:102EC000B84203DD6FF00100039033E0059820F075
:102ED000F00030300590059868F3C3000590059820
:102EE00064F342000590059869F3000005909DF891
:102EF000141006A80DF0D6FA04990698FFF71AFEEA
:102F000006990844069006A812A90EC90DF0E8FA21
:102F1000002C03DD514606A80DF0CAFA3246594688
:102F20000698FDF7CFF90698304406900698401BA6
:102F3000039000BF039807B0BDE8F08F7FB505464A
:102F4000089E002401A807C800F036F9801C304410
:102F50000444002D00DDA41C204604B070BDF8B56B
:102F600006460F4614461D4623460622394630467D
:102F70000095FFF742FEF8BD2DE9FF5F05460E46BE
:102F800017469846DDE90E9A0395002002900190BD
:102F9000009000245146484600F046F883460190D0
:102FA000FFF7E4FDB04202DDA01E009038E00020F3
:102FB0008DF80800029820F0F0008030029002980E
:102FC00067F3C3000290029820F00600801C029074
:102FD0009DF8081003A80DF065FA01990398FFF712
:102FE000A9FD039908440390414603A80DF060FA37
:102FF00000240FE004EB44000AEB800C03A89CE8DB
:103000000E000DF06DFA109810F8241003A80DF0C2
:1030100049FA641C4C45EDDB0398401B009000BF4F
:10302000009804B0BDE8F09F2DE9F04105460E463A
:10303000022700240AE004EB440006EB800393E837
:10304000070000F0B9F8C01C0744641CAC42F2DB76
:103050003846BDE8F0812DE9FC4104460D46164690
:1030600000200190471E0094022D01DA871E15E012
:1030700000208DF80400019866F3071001909DF878
:10308000041068460DF00EFA00210098FFF752FD7B
:103090000099084400900098071B00BF3846BDE81F
:1030A000FC8100002DE9F041A6B004460D4616460D
:1030B0000020259024906427089009900A9002200F
:1030C0000390002004900590E11704EB5171C910A2
:1030D00005AA515C04F0070301229A4011432046DF
:1030E000E21704EB5272D21005AB9954089507967B
:1030F00007A808A90122CDE9002102902C480188E7
:103100000068401C2A4A8BB21060002239460BA886
:10311000FFF732FF804641460BA80CF0F7FB002872
:1031200004DA4FF0FF3026B0BDE8F08103A8002399
:103130001A4605A90090601C04F022FD10B96FF03A
:103140000100F0E7E11704EB5171C91005AA515CC9
:1031500004F0070301229A40114011B96FF00200F8
:10316000E1E7144A39460BA8FFF714FD092802D0FD
:103170006FF00300D7E70BA806AB24AA0121CDE925
:10318000000725A8FFF7D5FB012802D06FF0040047
:10319000C9E70698802806D005480068401EBDF89B
:1031A0009410884202D06FF00500BCE70020BAE717
:1031B0001C00002069F8000837B50024009820B1F1
:1031C0000098FDF7BDF8044600E0019C20463EBD96
:1031D0001FB523A000F05AFDFFF7ECF826A000F081
:1031E00055FDFEF765FB2AA000F050FDFDF75CFBE6
:1031F0002F48006800F0010018B92EA000F046FD2D
:1032000002E036A000F042FDFFF778F939A000F0A7
:103210003DFD40A000F03AFD00200223CDE9003042
:10322000029003464FF4807240A1039041480DF094
:1032300097FBFDF724FB40A000F028FD00200423AD
:10324000CDE90030029003464FF4806245A103901F
:1032500046480DF085FB00BF00200CF031FFFBE776
:103260003E3EBBF9B1BE494FB3F5CABCBBAF2E2E33
:103270002E4F4B0D0A0000003E3EB3F5CABCBBAF5B
:10328000CDE2B2BFC0A9D5B9C4DAB4E60D0A0000D8
:103290003E3EBFAACABCD2D4CCABCDF8C4A3BFE9D2
:1032A000C5E4D6C32E2E2E2E2E2E0D0A00000000B1
:1032B000140000203E3EC5E4D6C3CAA7B0DCA3ACD0
:1032C000C7EBBCECB2E9CDF8CFDFCAC7B7F1B2E5C6
:1032D000BAC32D2D2D4552520A0000003E3EC5E4D2
:1032E000D6C3D2D4CCABCDF8B3C9B9A62E2E2E4FAF
:1032F0004B0D0A003E3EB3F5CABCBBAF4C5749501C
:10330000D0ADD2E9D5BBB3C9B9A62E2E2E4F4B0DE9
:103310000A0000003E3E48545450207365727665A2
:103320007220B3F5CABCBBAF0D0A00004C45443156
:1033300000000000193800083E3ECFB5CDB3B3F50C
:10334000CABCBBAFCDEAB1CFA3ACBDF8C8EBD5FDCD
:10335000B3A3B9A4D7F7D7B4CCAC2E2E2E4F4B0DB8
:103360000A0000004D51545400000000498F00082D
:1033700000BFFEE77047000070B5002100230F2258
:10338000C4781CB3174C246804F4E064C4F5E0640A
:10339000C4F30721C1F10404E3B20A4144789C401C
:1033A000E1B28478144021430C07210E0E4C0578BD
:1033B0006155047804F01F050124AC4005786D11B7
:1033C000AD0005F1E025C5F8004109E0047804F0FE
:1033D0001F050124AC40054D0678761145F82640BE
:1033E00070BD00000CED00E000E400E080E100E0D2
:1033F00002490143024A1160704700000000FA05CB
:103400000CED00E029B1064A12680243044B1A6031
:1034100004E0034A12688243014B1A6070470000BF
:103420003038024029B1064A12680243044B1A6040
:1034300004E0034A12688243014B1A60704700009F
:103440001038024029B1064A12680243044B1A6040
:1034500004E0034A12688243014B1A60704700007F
:103460003838024029B1064A12680243044B1A60F8
:1034700004E0034A12688243014B1A60704700005F
:1034800044380240F0B50021002200240225002625
:103490000223324F3F6807F00C0121B1042905D007
:1034A000082937D105E02E4F076036E02D4F076021
:1034B00033E02A4F3F1F3F68C7F38056274F3F1F17
:1034C0003F6807F03F036EB1264FB7FBF3F7DFF815
:1034D0008CC0ACF1040CDCF800C0CCF3881C07FBFA
:1034E0000CF40CE01E4FB7FBF3F7DFF870C0ACF143
:1034F000040CDCF800C0CCF3881C07FB0CF4174F5D
:103500003F1F3F68C7F301477F1C7D00B4FBF5F701
:10351000076002E0124F076000BF00BF0F4F3F6817
:1035200007F0F0010909104F7A5C0768D74047603F
:103530000A4F3F6807F4E051890A0B4F7A5C4768ED
:10354000D7408760054F3F6807F46041490B064F3D
:103550007A5C4768D740C760F0BD00000838024079
:103560000024F40000127A00140100202DE9FF412C
:1035700004460E4617461D4695B30195002002905D
:103580000390E11704EB5171C91003AA515C04F0D8
:10359000070301229A4011432046E21704EB5272BE
:1035A000D21003AB995401A800231A4603A9009036
:1035B000601C04F0E5FA20B94FF0FF3004B0BDE81C
:1035C000F081E11704EB5171C91003AA515C04F0BA
:1035D000070301229A40114011B94FF0FF30EDE787
:1035E000FFE7034A39463046FFF7D4FAE6E7000022
:1035F00069F800081CB504460E4951F82400012161
:10360000FFF700FF0C4830F81400009001208DF8FF
:10361000040000208DF8060001208DF8070002202C
:103620008DF80500054951F824006946FEF7A6FA11
:103630001CBD0000381101083011010834010020C0
:10364000034931F81010034A52F8202011837047C3
:103650003011010834010020034931F81010034AE9
:1036600052F82020518370473011010834010020A6
:10367000064951F820104969054A32F81020514096
:10368000024A52F8202051617047000034010020A6
:10369000301101080149086070470000DC00274232
:1036A0000CB50020019000903A48006840F480304A
:1036B0003849086000BF3748006800F400300090C7
:1036C0000198401C0190009818B90198B0F5A06FBE
:1036D000F1D13048006800F4003010B101200090B2
:1036E00001E0002000900098012852D12948403084
:1036F000006840F080502749403108602648006843
:1037000040F44040244908602248083000682149BC
:10371000083108600846006840F400400860084628
:10372000006840F4A05008601C48091F0860081F8A
:10373000006840F08070091F086000BF15480068ED
:1037400000F000700028F9D01548006841F201012E
:10375000B1EB104F04D140F205701249086003E04C
:1037600040F205600F4908600A480830006820F000
:1037700003000849083108600846006840F002006C
:10378000086000BF03480830006800F00C000828FB
:10379000F8D10CBD003802400070004008544007CA
:1037A000002004E0003C024010B50CF0D3FE10BD38
:1037B00010B51548006840F47000134908601348BC
:1037C000006840F001001149086000200F490831ED
:1037D00008600E4800680E4908400C4908600D4812
:1037E000091D0860081F006820F48020091F086078
:1037F000002006490C310860FFF752FF4FF00060CF
:1038000001498039086010BD88ED00E000380240B1
:10381000FFFFF6FE1030002400BF4FF47A700CF06A
:1038200033FCFAE710B540F225511D4800F057F877
:1038300010B31B4800F00CF9C4B21A48008800F419
:103840000040C8B91748008800F4804060B10A2CD5
:1038500003D000201349088020E01248008840F47B
:1038600000401049088019E00D2C06D10D48008851
:1038700040F480400B49088010E00A480088C0F3FB
:103880000D0009490C5407480088401C0549088070
:1038900008460088C72801DD0020088010BD000010
:1038A00000100140D801002040FE002021B1828993
:1038B00042F40052828104E082894DF6FF731A407F
:1038C0008281704702460020B1F5007F00D100BF21
:1038D00013880B400BB1012000E00020704770B549
:1038E0000246002400230025002040F66A16B1425B
:1038F00000D100BFC1F3421501F01F03012606FAF3
:1039000003F3012D02D19689334006E0022D02D146
:10391000168A334001E0968A33400C12012606FADB
:1039200004F41688344013B10CB1012000E00020EB
:1039300070BDF0B50346002400260025002040F6A7
:103940006A17B94200D100BF1846C1F3421401F012
:103950001F06012707FA06F5012C01D10C3004E0FF
:10396000022C01D1103000E014301AB107682F4347
:10397000076002E00768AF430760F0BD2DE9FF472D
:1039800005460E460024A14600BFA046B08900B1FE
:1039900000BF2C8A24F44054F08804432C82AC8964
:1039A00041F20C608443B08831890843718908432F
:1039B0000443AC81AC8A24F44074B0890443AC82E3
:1039C0006846FFF75FFD2048854202D01F488542C8
:1039D00002D1DDF80C9001E0DDF80890A88900F430
:1039E000004040B109EBC90000EB09103168490003
:1039F000B0FBF1F707E009EBC90000EB09103168F3
:103A00008900B0FBF1F76420B7FBF0F00401200956
:103A1000642101FB1078A88900F4004040B13220F5
:103A200000EBC800B0FBF1F000F00700044308E031
:103A3000322000EB08106421B0FBF1F000F00F0021
:103A400004432C81BDE8FF870010014000140140B1
:103A500001468888C0F308007047C1F308028280DD
:103A60007047000010B588B0044601210846FFF7F2
:103A7000C9FC01211020FFF7F5FC0722092122488B
:103A8000FEF7C4F807220A211F48FEF7BFF84FF4DB
:103A9000C060069002208DF81C008DF81D000020EB
:103AA0008DF81E0001208DF81F0006A91648FEF7AC
:103AB00065F802940020ADF80C00ADF80E00ADF8EA
:103AC0001000ADF814000C20ADF8120002A90F4848
:103AD000FFF754FF01210D48FFF7E8FE012240F2F5
:103AE00025510A48FFF725FF25208DF80400032003
:103AF0008DF805008DF8060001208DF8070001A85B
:103B0000FFF73AFC08B010BD000002400010014071
:103B100000BFFEE710B5044616A000F0B7F8207805
:103B200020B1012806D002280CD107E01CA000F02B
:103B3000ADF80BE020A000F0A9F807E024A000F009
:103B4000A5F803E028A000F0A1F800BF00BF04F52D
:103B50009A712BA000F09AF8611C2EA000F096F844
:103B600031A0D4F8301100F091F8002084F86801F9
:103B700010BD00004D5154543E3E2A2A2A2ACAD56F
:103B8000B5BDBFCDBBA7B6CBD7D4BCBAB6A9D4C43C
:103B9000B5C4CFFBCFA2A3A1A3A12A2A2A2A0A0037
:103BA0004D5154543E3ECFFBCFA2D6CAC1BFA3BA9B
:103BB000516F53300A0000004D5154543E3ECFFB2C
:103BC000CFA2D6CAC1BFA3BA516F53310A000000B9
:103BD0004D5154543E3ECFFBCFA2D6CAC1BFA3BA6B
:103BE000516F53320A0000004D5154543E3EB4ED23
:103BF000CEF3B5C4CFFBCFA2D6CAC1BF0A00000026
:103C00004D5154543E3ECFFBCFA2D6F7CCE2A3BADF
:103C100025730A004D5154543E3ECFFBCFA2C4DA67
:103C2000C8DDA3BA25730A004D5154543E3ECFFB64
:103C3000CFA2B3A4B6C8A3BA25640A002DE9F04305
:103C4000CBB080460D46164600274FF4967900BF4C
:103C500002234A4669464046FFF788FC0446601C3A
:103C600020B1E0B24A46694605F0DEF8781CC7B2DA
:103C7000AC4201D0B742EBDBAC4203D100204BB0E9
:103C8000BDE8F0834FF0FF30F9E700000FB4054BBB
:103C900010B503A9044A029800F0DEF810BC5DF8E4
:103CA00014FB000085650008E40100200FB4084BF8
:103CB00010B504A902AA039800F0CEF8044602A9A0
:103CC000002000F060FC204610BC5DF814FB0000F2
:103CD0008745000802E008C8121F08C1002AFAD16F
:103CE00070477047002001E001C1121F002AFBD17C
:103CF000704700002DE9FF5FDDE90220010DDDF8CE
:103D000038B0024318D044F61050A1F2FF314143BD
:103D10000D140F98012820D0A5EB0B00401C5FEA82
:103D2000000A4FF00004474EDFF81C91A0465046B1
:103D300016D5CAF1000728E00F98012443A20128F4
:103D400008D0002100980F9BC0E90021C0E9024380
:103D5000BDE8FF9F6FEA0B01F4E7CBF10000DEE75F
:103D6000074612E0F80707D0224633464046494648
:103D7000FCF73CFC804689462246334610461946ED
:103D8000FCF734FC04460E467F10002FEAD1DDE933
:103D90000201BAF1000F42464B4602DAFCF726FC5C
:103DA00001E0FCF795FC04460E460022284BFCF788
:103DB000DBFA03D84FF0FF30014607E00022254B25
:103DC00020463146FCF76BFBFCF7F1FC102409E0C0
:103DD000002C0ADB0A220023FCF734FA019B303264
:103DE0001A55641E50EA0102F2D1641C019AC4F112
:103DF000110314440F9A012A03D0012208430DD164
:103E00000AE0084304D000204FF0110B0F9080E728
:103E1000A3EB0B056D1E0DE05B4504DD4FF00002CA
:103E200005F1010504E003DA4FF00002A5F10105F8
:103E3000002AECD000980F99C0E90231C0E9004592
:103E400086E70000000024400000F03F3000000042
:103E50000000F0430000E03F2DE9FF4F95B09B4686
:103E60008946064600250FE2252877D100242746FB
:103E7000F84A0121059400E0044316F8013F203B75
:103E800001FA03F01042F7D130782A2811D06FF0F0
:103E90002F033078A0F13002092A16D8059A44F091
:103EA000020402EB820203EB42021044761C0590EE
:103EB000EFE759F8042B0592002A03DA504244F444
:103EC0000054059044F00204761C30782E2816D158
:103ED00016F8010F44F004042A280DD06FF02F02C9
:103EE0003078A0F13003092B09D807EB870302EBE8
:103EF0004303C718761CF3E759F8047B761C307827
:103F00006C280FD006DC4C2817D068280DD06A2802
:103F100014D104E0742810D07A280FD10DE044F4B5
:103F200000140AE044F4801401E044F44014727870
:103F3000824202D104F58014761C761C3078662803
:103F40000BD013DC582877D009DC002875D0452821
:103F5000F6D04628F4D047281AD19DE118E063280E
:103F600035D0642879D0652812D195E1702873D0B6
:103F700008DC6728F1D069286FD06E280DD06F2833
:103F800006D1B5E073282CD0752875D0782874D068
:103F90005A46179990476D1C75E1C4F302500228E8
:103FA00009D003280DD0D9F8001004280DD00D60D9
:103FB00009F1040967E1D9F80010EA17C1E90052D4
:103FC000F6E7D9F800100D80F2E70D70F0E719F868
:103FD000041B8DF8001000208DF80100EA46012036
:103FE00003E059F804AB4FF0FF3061074FF00001D8
:103FF00002D40DE008F101018846B9420FDA80458C
:10400000F8DB1AF808100029F4D108E008F10101E2
:1040100088468142FADB1AF808100029F6D1059883
:104020005B46A0EB080721463846179A00F094FA41
:10403000284400EB080507E04DE029E10DE01AF8FF
:10404000010B5A4617999047B8F10108F7D25B4621
:1040500021463846179A13E142E00A220092C4F33F
:1040600002524FF0000A022A08D059F804CB032A62
:104070004FEAEC710AD00DE029E02AE009F10701CE
:1040800021F00702F2E802C1914609E00FFA8CFC28
:104090004FEAEC71042A03D14FFA8CFC4FEAEC7121
:1040A000002907DA0A460021DCF1000C61EB02016D
:1040B0002D2202E0220504D52B228DF804200122B6
:1040C00003E0E20701D02022F7E7904659E00A21F9
:1040D00002E010220DE010214FF0000A00910BE0E9
:1040E00010224FF0000A44F004040827009203E075
:1040F00008224FF0000A0092C4F30252022A05D0AF
:1041000059F804CB0021032A08D009E009F107017E
:1041100021F00702F2E802C1914605E01FFA8CFC8B
:10412000042A01D10CF0FF0C4FF00008220728D51B
:10413000702806D0009B83F0100353EA0A0305D0D1
:104140000EE040228DF80420012208E05CEA010222
:1041500006D030228DF804208DF80500022290460A
:10416000009B83F0080353EA0A030AD15CEA0102C8
:1041700001D1620705D530228DF804204FF00108E7
:104180007F1E582804D034A003900EA802900DE0A2
:1041900036A0F9E753466046009AFCF753F8844688
:1041A0000398825C0298401E029002705CEA010053
:1041B000F0D1029806A9081A00F1200A600702D57A
:1041C00024F4803400E00127574502DDA7EB0A0004
:1041D00000E0002000EB0A01009005984144401ADD
:1041E0000590E00306D45B462146179A059800F037
:1041F000B3F90544002706E001A85A46C05D1799A7
:1042000090476D1C7F1C4745F6DBE0030CD55B46F1
:104210002146179A059800F09FF9054404E03020E4
:104220005A46179990476D1C0099481E0090002926
:10423000F5DC08E0029802995A460078491C029180
:10424000179990476D1CBAF10001AAF1010AF1DC3F
:1042500065E100000928010030313233343536374A
:1042600038396162636465660000000030313233C2
:104270003435363738394142434445460000000062
:1042800000F058F90544761C307800287FF4ECAD36
:1042900019B02846BDE8F08F620700D4062709F15F
:1042A000070222F0070CFCE80223E14603F0004875
:1042B0005FEA080C02D00FF2702C0DE05FEA045C9C
:1042C00002D50FF2682C07E05FEAC47C02D00FF23F
:1042D000602C01E0AFF2700C4FF0FF3823F0004388
:1042E000CDF850C065280CD006DC452809D04628FA
:1042F0001DD047283DD13DE0662818D067287ED1E3
:1043000038E00021112F01DB112000E0781CCDE9FD
:10431000000106A90EA8FFF7EDFCDDE90F010E9ADA
:1043200003910021009207F1010A04914DE04FF042
:1043300000400097CDE9011006A90EA8FFF7DAFCAE
:10434000DDE90F0203920E9B11990022DDF80CA00B
:104350000093049211B9791C00EB010AB7EB0A0033
:1043600004D4C0F1FF3007F1010A0490AAEB070062
:10437000019044E0012F00DA01270021112F01DD17
:10438000112000E03846CDE9000106A90EA8FFF78C
:10439000B1FCDDE90F010E9A039100210491009216
:1043A000BA4621070CD40399514500DA8A46BAF17E
:1043B000010F05DD009AAAF10101515C302908D0F6
:1043C000B84202DA10F1040F06DA0121CDE901103A
:1043D00015E0AAF10101E9E7002805DC0499014490
:1043E0000491AAEB000102E0411C514500DD8A4620
:1043F0000499401A401C01904FF0004002902007A1
:1044000004D40198504501DBCDF8048000208DF8DC
:104410004F0002980DF14F07B0F1004F25D02B202F
:104420000E9002984FF0020800280CDA40420290E9
:104430002D200E9007E00A210298FBF7ADFF3031E6
:10444000029007F8011DB8F10001A8F10108F2DCA3
:1044500002980028EFD1791E0E980870307800F08D
:10446000200040F0450007F8020D12A8C01B00F123
:1044700007081498007800B1012000EB0A010198A8
:1044800001EBE07105984144401A401E0590E0039D
:1044900006D45B462146179A059800F05DF805445E
:1044A0001498007818B15A46179990476D1CE0038C
:1044B00024D55B462146179A059800F04DF805442F
:1044C0001CE00498002807DBDDE90301884203DDD6
:1044D0000098405C179901E0179930205A469047A0
:1044E000049805F10105401C04900198401E0190BC
:1044F00004D12E205A46179990476D1CBAF100013D
:10450000AAF1010ADDDC05E017F8010B5A461799FC
:1045100090476D1CB8F10001A8F10108F4DC5B467E
:104520002146179A0598ABE62D0000002B000000ED
:10453000200000002DE9F041044600251E461746E4
:10454000880404D405E039462020B0476D1C641E61
:10455000F9D52846BDE8F0812DE9F0410446002553
:104560001E469046C80301D5302700E02027880466
:1045700004D505E041463846B0476D1C641EF9D5A8
:104580002846BDE8F0810A68531C0B601070704724
:1045900030B502460B4600213DE001EB4100204CC6
:1045A00054F83000A8BB01EB410044F83020002053
:1045B00001EB41041A4D05EBC404606001EB4104BA
:1045C00005EBC404208101EB410405EBC4046081C8
:1045D0001078102804D10BB1012002E0002000E087
:1045E000012001EB41040E4D05EBC404A081002025
:1045F00001EB410405EBC404E08101EB410405EB50
:10460000C404206101EB410405EBC4046061084669
:1046100030BDFFE7491C0429BFDB4FF0FF30F7E74F
:104620004804002010B5044601F0C0FD00220349F3
:1046300041F2883006F0AEFB10BD000025460008B0
:1046400010B5044600BF00BF01F0B0FD00220349D1
:1046500041F2883006F09EFB10BD00004146000884
:1046600010B50246002309E0064800680078107083
:1046700004480068401C034C20605B1C8B42F3DB49
:10468000084610BDDC01002001B581B0002000907B
:10469000054901984843009002E00098401E0090B0
:1046A00000980028F9D10CBDA086010070B506461F
:1046B0000D46144628782070601CD5E90312FBF7DC
:1046C00001FE0021601C2A6981542869C4F8300168
:1046D00004F59A70D6E90121FBF7F4FD002104F5F9
:1046E0009A7072688154E888A4F86601012084F801
:1046F000680170BD70B504460D4600BF04B970BDB9
:1047000000BF00BF00BF606A78B1606A007B082804
:104710000BD100BF00BF2868616A496A884204D192
:1047200000BF00BF204600F077F900BFE7E77CB587
:10473000064600BF06B97CBD00BF746A00BF04B95D
:10474000F9E700BF00BF00BF606B401C90B100BF25
:1047500000BF606B1E303C21B0FBF1F5B5F5803F2A
:1047600001D34FF6FF75A583A08B08B90120A08364
:1047700000BF00BFA06B401C90B100BF00BFA06B8A
:104780001E303C21B0FBF1F5B5F5803F01D34FF66B
:10479000FF75E583E08B08B90120E08300BF00BF0F
:1047A000A08BE18B884204DBE08B002801DD002038
:1047B000A083A07B10B1A06A019010E094F82400BF
:1047C0007F2802DCFF21019108E0C02803DB6FF0A5
:1047D0007F41019102E04FF6FF71019100BFE06A55
:1047E0000090684608B1009838B9606A019908409D
:1047F0000090009840F08070009000BF00BF04F16E
:104800002401304605F04CF900BF00BF01A9304635
:1048100005F0C8F900BF00BF6946304605F037F91A
:10482000304605F0C7F90A21204600F051FC00BFD0
:1048300081E72DE9F0410646746A00BF00BF0821F8
:10484000204600F045FC002204F12401304601F02E
:104850005FFB05460DB100BF00BF607B401C60736D
:104860004FF4FA7707F2F310394690FBF1F06083CA
:1048700000BF00BFBDE8F08110B51248046800BF5A
:1048800000BF1BE0606AC0B1606AC18B481E626AEB
:10489000D083012905D100BF00BF204600F034FCC1
:1048A0000BE0606A818B481E626A9083012904D103
:1048B00000BF00BF204600F013FC2468002CE1D1AB
:1048C00010BD00008C0000202DE9F04106460C468A
:1048D000174600BF1EB96FF00D00BDE8F08100BFA4
:1048E00000BF14B96FF00500F7E700BF00BF00BFBD
:1048F00000BF00BF00224FF49A71104605F075F911
:104900002061206920B900BF00BF4FF0FF30E4E70D
:1049100000BF00BF607B20B93D480068401C3C4997
:1049200008603B480068206000BF00BF2069406805
:1049300060610120616908706169487096F82A0019
:104940006169887000206169C870206802F0B4FD58
:104950006169486000206169088161694881616915
:10496000C860082F09D0042F07D0032F08D1207B5F
:10497000052802D0207B042802D170686169C860D4
:104980000020616908616169486161698861002589
:104990000DE096F82A00A84203DD06F12B00405DE9
:1049A00000E0002061691C314855681C85B2102D5B
:1049B000EFD3002505E0002160692C304155681CCB
:1049C00085B2402DF7D3002505E0002160696C30E9
:1049D0004155681C85B2802DF7D30E486169C1F836
:1049E000EC0000202083002504E06069F03045558C
:1049F000681C85B2442DF8D301223521204600F0F1
:104A000027F93946204600F033F9002065E7000019
:104A100078000020638253632DE9F84305466C6AF1
:104A2000002600BF00BF0C21204600F051FB0422ED
:104A300021462846FFF748FF06460EBB04223221D6
:104A4000204600F005F9606A02F05BFD80464146B1
:104A5000204600F016F9204600F045F9228BF0328E
:104A600091B2206905F0F3FA009543230E4A2169BB
:104A700060680BF070F9204600F018F800BF01E004
:104A800000BF00BF607B401C607342F2107707F2EA
:104A9000F3104FF4FA7190FBF1F0608300BF00BF98
:104AA0003046BDE8F88300007410010810B50446D4
:104AB00000BF04B910BD00BF00BF00BF00BF00BFF2
:104AC000206910B1206905F040FA00202061606182
:104AD00000BFEFE7F8B505466C6A002600BF00BFCF
:104AE000002060620621204600F0F2FA01222146F1
:104AF0002846FFF7E9FE0646002E3AD100BF00BF68
:104B000002223921204600F0A3F8298D204600F02A
:104B1000D9F804223721204600F09AF801212046D6
:104B200000F0A6F80321204600F0A2F81C21204640
:104B300000F09EF80621204600F09AF8204600F08A
:104B4000D2F800BF00BF228BF03291B2206905F08D
:104B50007EFA00BF00BF00954323164A21696068B2
:104B60000BF0F9F800BF00BF2046FFF79FFF00BF22
:104B700001E000BF00BF607B401C6073607B0628C3
:104B800003DA617B0120884000E03C2000EB40011B
:104B9000C1EBC0104FF6FF7101EAC00707F2F31036
:104BA0004FF4FA7190FBF1F0608300BF00BF304614
:104BB000F8BD00007410010810B5104804681AE030
:104BC000606AB8B1606A408B012805DD606A408B7D
:104BD000401E616A48830DE0606A408B012809D15C
:104BE000606A408B401E616A488300BF00BF204658
:104BF00000F09EFA2468002CE2D110BD8C00002049
:104C000070B505466C6A04B970BD207B042809D0D4
:104C100003DC98B1032812D107E0052803D00A2845
:104C20000DD101E000BF00BF00BF284604F01AFF0D
:104C300000206073284600F0C5F806E005E000207B
:104C400060732846FFF746FF00BF00BF00BFDBE7E9
:104C500010B500BF00BF048B631C03834369F033AE
:104C60001955048B631C03834369F0331A5510BD37
:104C700000BF00BF038B5A1C02834269F032D1543B
:104C8000704710B500BF00BF0B0E048B621C02837F
:104C90004269F0321355C1F30743048B621C02834F
:104CA0004269F0321355C1F30723048B621C02835F
:104CB0004269F0321355048B621C02834269F03260
:104CC000115510BD10B500BF00BF0B0A048B621C4C
:104CD00002834269F0321355048B621C02834269DD
:104CE000F032115510BD00BF00B9704700BF00BFC2
:104CF00000BF00BF00BFFF22038B591C0183416925
:104D0000F031CA5406E00022038B591C018341692B
:104D1000F031CA54018B442903D3017E01F0030111
:104D200011B1018B4429EED300BFDEE7F8B505468B
:104D30006C6A00BF00BF0421204600F0C9F90322BD
:104D400021462846FFF7C0FD0646EEB9022239216A
:104D50002046FFF77DFF298D2046FFF7B3FF204651
:104D6000FFF7C1FF228BF03291B2206905F06FF995
:104D700000954323124A216960680AF0ECFF20463F
:104D8000FFF794FE00BF01E000BF00BF607B401C46
:104D90006073607B0A2805DA607B4FF47A7110FB40
:104DA00001F001E042F2107087B207F2F3104FF405
:104DB000FA7190FBF1F0608300BF00BF3046F8BD90
:104DC000741001082DE9F84305466C6A00BF00BF66
:104DD0000321204600F07CF9032221462846FFF7F4
:104DE00073FD06465EBB022239212046FFF730FFE5
:104DF0004FF410712046FFF765FF04223221204650
:104E0000FFF726FF606A02F07CFB804641462046A1
:104E1000FFF737FF2046FFF766FF228BF03291B293
:104E2000206905F014F900954323134A216960684D
:104E30000AF091FF2046FFF739FE00BF01E000BFF6
:104E400000BF607B401C6073607B0A2805DA607BD2
:104E50004FF47A7110FB01F001E042F2107087B25A
:104E600007F2F3104FF4FA7190FBF1F0608300BF8A
:104E700000BF3046BDE8F88374100108F8B5054658
:104E80006C6A00BF00BF0021204600F021F900201D
:104E900020626062A062E062A06360632063072218
:104EA00021462846FFF710FD0646AEB92046FFF71B
:104EB0001AFF228BF03291B2206905F0C8F80095F4
:104EC000432304F12002216960680AF044FF204670
:104ED000FFF7ECFD00BF01E000BF00BF607B401C9E
:104EE0006073607B0A2805DA607B4FF47A7110FBEF
:104EF00001F001E042F2107087B207F2F3104FF4B4
:104F0000FA7190FBF1F0608300BF00BF284604F007
:104F1000A9FD0749284604F0C3FD0549284604F0C9
:104F2000B6FD0349284604F03DFE3046F8BD0000BA
:104F300070100108F8B505466C6A00BF00BF052176
:104F4000204600F0C5F8032221462846FFF7BCFCA6
:104F50000646F6B9022239212046FFF779FE298D4F
:104F60002046FFF7AFFE2046FFF7BDFE228BF03252
:104F700091B2206905F06BF80095432304F12002FB
:104F8000216960680AF0E7FE2046FFF78FFD00BF49
:104F900001E000BF00BF607B401C6073607B0A289B
:104FA00005DA607B4FF4FA6110FB01F001E044F692
:104FB000206087B207F2F3104FF4FA7190FBF1F022
:104FC000608300BF00BF3046F8BD00002DE9F84304
:104FD00005466C6A00BF00BF0121204600F078F84A
:104FE000032221462846FFF76FFC0646002E4CD1CF
:104FF000022239212046FFF72BFE298D2046FFF79C
:1050000061FE042232212046FFF722FE606A02F090
:1050100078FA804641462046FFF733FE04223621C7
:105020002046FFF715FE206A02F06BFA80464146E3
:105030002046FFF726FE042237212046FFF708FE10
:1050400001212046FFF714FE03212046FFF710FE42
:105050001C212046FFF70CFE06212046FFF708FE24
:105060002046FFF740FE228BF03291B2206904F017
:10507000EEFF00954323154A216960680AF06BFE34
:105080002046FFF713FD00BF01E000BF00BF607BBB
:10509000401C6073607B062803DA617B0120884036
:1050A00000E03C2000EB4001C1EBC0104FF6FF7167
:1050B00001EAC00707F2F3104FF4FA7190FBF1F028
:1050C000608300BF00BF3046BDE8F883741001085C
:1050D000027B8A4203D001730022427342837047ED
:1050E00070B505466C6A00BF00BF207B012805D063
:1050F000207B0A2802D0207B052804D100BF00BFF6
:105100002846FFF717FF70BD70B505466C6A00BFF3
:1051100000BF207B012805D0207B0A2802D0207BFD
:10512000052804D100BF00BF2846FFF7FFFD70BD72
:1051300070B505466C6A00BF00BF207B0C2802D00A
:10514000207B062805D100BF00BF2846FFF7C2FC20
:105150004FE0207B012811D100BF00BF607B0528F4
:1051600003DC2846FFF732FF43E000BF00BF2846BC
:10517000FFF784FE2846FFF7ADFC3AE0207B0828C5
:105180000CD100BF00BF607B012803DC2846FFF77D
:1051900050FB2EE02846FFF7CAFA2AE0207B0528BC
:1051A00005D100BF00BF2846FFF7C4FE21E0207BE9
:1051B000042811D100BF00BF607B082803DC28460B
:1051C000FFF7B4FD15E000BF00BF2846FFF756FE0D
:1051D0002846FFF77FFC0CE0207B032809D1607B89
:1051E000022803DA2846FFF7EDFD02E02846FFF724
:1051F00071FC70BD10B5044600BF00BFFFF73CFB5B
:10520000002203494EF6602005F0C4FD10BD0000E9
:10521000F551000810B5044600BF00BFFFF7CCFCF5
:10522000002203494FF4FA7005F0B4FD10BD0000F0
:10523000155200082DE9F047044600BF00BF00BF2B
:1052400000BF00BF00BF00BF00BF00BF00BF606A5B
:10525000067A06F0010706F00208032E01D10120AC
:1052600000E000208146B9F1000F03D00021606802
:1052700005F09AFF6068007E012804D10021606873
:1052800005F0B7FE1BE03FB10021606808F0CCFEDE
:105290000021606805F0ADFEB8F1000F03D00021D9
:1052A000606809F03EF9B9F1000F08D0042200212E
:1052B000606807F0C7FE0021606806F0FDFBB9F1E9
:1052C000000F04D0606805F071FF054605E0424616
:1052D0003946606809F029F9054635BB0020616A46
:1052E000087160626070B9F1000F07D06060A06A59
:1052F00020B1002204212046A36A984737B1A06A52
:1053000020B1002211462046A36A9847B8F1000F49
:1053100006D0A06A20B1002202212046A36A984745
:1053200004F10C0005F0FDFC12E000BF00BF0949CC
:10533000606809F0F6F804220749606807F082FE09
:105340000649606806F0B8FB2146606805F02CFF4E
:10535000BDE8F087C3AA0008F5A100082559000898
:1053600010B504462068406810B9F420207153E05D
:105370002068007800F0F000102812D0202808D013
:10538000402841D12268A168506805F0BAF920711F
:1053900041E0A2892368A16858680AF029FB2071BE
:1053A00039E02068407810B1F72020712BE02068A8
:1053B00005F0BAFBA2892368A16858681A4B06F069
:1053C0002BF820712079F0B92168097FC1F34000E2
:1053D00003212268517000BF30B12168097F41F07C
:1053E00004012268117705E02168097F21F004019A
:1053F0002268117700BF10B1FB21217102E0216802
:105400004C6210BD00BF06E000BF00BFFA20207153
:1054100000BF00BF00BF00BF216801F10C0005F014
:1054200080FC00BFEDE700002D5400082DE9F0419D
:105430000546884616462C461CB96FF00500BDE8A7
:10544000F08100BF00BF00BF00BF606A08B1606AA2
:1054500006712078102803D116B9204605F064FBA8
:10546000207F012121EA900700BF207F20F0040067
:10547000207700BF00206062607047B900BF94F9D8
:10548000080010F1090F01DB0020207200BFA06AA4
:1054900020B1002202212046A36A98471FB104F1DF
:1054A0000C0005F03EFC0020C9E710B5044620685A
:1054B000407860B120684078022808D020684078A1
:1054C000032804D000BF00BFFB20207141E000BFD3
:1054D00000BF206804F022F82068406848B32068C4
:1054E000007800F0F000102811D0202806D04028C5
:1054F0001AD12168486805F065F916E00020216896
:105500004968C861216848680AF0E0FB0DE000BF07
:1055100000BF042021684870032020722068446284
:105520002068FFF787FE10BD00BF00BF0020216884
:1055300048602068806A20B1206800221146836A92
:1055400098472068806A20B1206800220221836A7F
:105550009847216801F10C0005F0ECFB20B12168AF
:1055600001F10C0005F0DDFB00BFDCE710B50446DF
:105570002068007800F0F000202806D121684868F3
:105580000AF06AFA0020207101E0FA2020712168F7
:1055900001F10C0005F0C5FB10BD10B504462068F4
:1055A000406800284AD0207C28B12168A06849685A
:1055B0000968016004E02168A068496849680160E1
:1055C000002020712068007800F0F000102825D01D
:1055D00020280CD040282DD1207C28B1206840689C
:1055E000017CE068018001E0F320207125E0207C4F
:1055F00028B120684068418AE06801800DE0206899
:105600004068007C00F0040010B9F320207104E031
:1056100020684068818AE06801800EE0207C18B133
:1056200020684068408B02E020684068808BE16819
:10563000088002E000BF00BF00BF01E0F32020713E
:10564000216801F10C0005F06CFB10BD10B504469B
:10565000002020712068406810B9204604F038FD11
:10566000216801F10C0005F05CFB10BD70B504462B
:10567000002020712068406830B32068007810282E
:1056800022D120684068007E01280AD100BF00BFF7
:1056900000BF20684068407F401E21684968487705
:1056A00012E0A56800BFB5F5803F02D34FF6FF704A
:1056B00000E0A8B2064621684868314608F0D0FCF0
:1056C000AD1B002DEFD100BF216801F10C0005F0EA
:1056D00028FB70BD70B50446206890F9080010F1F1
:1056E000090F03DA2068007A207140E0F32020716E
:1056F0002068406800283AD02068007800F0F00068
:10570000202819D0402830D1A068083010B1A068F6
:10571000806838B9A26811682268506805F072F88C
:10572000207108E0A36803F108021968236858682B
:1057300005F071F8207119E0A068083010B1A06878
:10574000806838B9A2681168226850680AF0DEFAE9
:10575000207109E0A568AB8905F108022968256870
:1057600068680AF0DDFA207100E000BF00BF216820
:1057700001F10C0005F0D5FA70BD10B504462068A3
:1057800090F9080010F1090F03DA2068007A2071FF
:1057900021E02068007810281BD12068407810B1E3
:1057A000FB20207117E02068406878B10120216853
:1057B000487000BF00BF00BF00BF206844620020E7
:1057C00021680862206800F00DF810BDF3202071F8
:1057D00001E0FA202071216801F10C0005F0A1FA26
:1057E00000BFF2E72DE9F84F044600200090207F2B
:1057F00000F0020020B9606A007C00F0040008B1EB
:10580000012000E000200746606A90F8108000BF89
:1058100000BF00BF00BF00BF00BF00BF00BF00BF90
:1058200000BF606A8068216A00EB010B606AC06893
:10583000216AA0EB010ABAF5803F04D34FF6FF7648
:1058400048F0020801E01FFA8AF66068B0F8669036
:10585000B14507DA4E461FB126B96FF006050EE0D6
:1058600048F0020800BF00BF434632465946606810
:1058700009F020FA05460DB1681C20BB00BF7FB1BE
:10588000606AC068B0420BD9A06A20B132460321D9
:105890002046A36A9847207F40F01000207712E04E
:1058A0006068B0F8660040F66731884204DD6068E1
:1058B000B0F86800052806DBA06A20B13246032153
:1058C0002046A36A98479DB9206A30442062D4E9F3
:1058D0000810C068814200D037B1D4E90810C16017
:1058E0000120009000202062606806F005FF0BE0B8
:1058F000681C20B91FB9606806F0FEFE04E00120B4
:1059000000900021606AC160009840B1606A057132
:1059100000206062607004F10C0005F002FA0020C3
:10592000BDE8F88F2DE9F04107460E463C4600BF22
:1059300000BF00206060267265786070A06A20B1A8
:10594000002204212046A36A9847A06A20B10022C1
:1059500011462046A36A9847A06A20B1002202217E
:105960002046A36A984704F1100005F0ABF920B176
:10597000002104F1100005F095F904F1140005F080
:10598000A1F920B1002104F1140005F08BF9012DDB
:1059900003D0042D01D0032D16D1207FC0F3800841
:1059A00000BF207F20F00400207700BFB8F1000F77
:1059B00009D100BF00BF606A06710020606204F177
:1059C0000C0005F0AEF901E000BF00BFBDE8F081BA
:1059D0002DE9FC4705468846164600BF0DB9BDE8CF
:1059E000FC8700BF70892A2805DA00BF00BF304657
:1059F00004F0ABFAF3E7776807F10E042088B0F5FE
:105A0000807F08D12079062805D16079042802D149
:105A10006088082805D000BF00BF304604F095FA22
:105A2000DDE7D4F80E000190A0690090281D08B1B0
:105A3000686810B94FF0000907E00098696888426B
:105A400001D1012000E000208146B9F1000F01D012
:105A5000012000E00220034604F1080201A92846C3
:105A600000F0EEFBE088B0F5807F03D0B0F5007F5A
:105A70003ED136E000BF00BFB9F1000F28D000BF13
:105A800000BF022001F025FDE080D4F80E00A061E7
:105A90006868C4F80E0000BF00BFA068C4F8120018
:105AA000A089E082A0683860A089B880D8F800009A
:105AB000A060B8F80400A081D8F80000C7F806007C
:105AC000B8F80400788131462846AA69904707E073
:105AD000281D08B1686808B900BF01E000BF00BF19
